:100000000C942A000C943F000C943F000C943F0089
:100010000C943F000C943F000C943F000C943F0064
:100020000C943F000C943F000C943F000C943F0054
:100030000C943F000C943F000C943F000C943F0044
:100040000C943F000C943F000C943F000C943F0034
:100050000C943F0011241FBECFE5D4E0DEBFCDBF1E
:1000600010E0A0E6B0E0E8E9FBE002C005900D92E8
:10007000A836B107D9F70E94AC000C94CA050C94BD
:100080000000CF93DF93CDB7DEB787E290E020E6A4
:10009000FC01208386E290E026E230E0F901208135
:1000A0002064FC012083000086E290E0FC01808156
:1000B000882F90E080749927892BB1F785E290E032
:1000C000FC018081882F90E0DF91CF910895CF933C
:1000D000DF9300D000D0CDB7DEB70E944100892B5E
:1000E00099F585E290E0FC018081282F30E084EED4
:1000F0009CE0289FA001299F500D389F500D11248E
:100100002FEF30E0CA01B9010E94AF02CB019A8300
:1001100089838A818F9389818F9380E690E0892FEC
:100120008F9380E690E08F938C818F938B818F9358
:100130000E94E0020F900F900F900F900F900F9081
:100140008B819C810E94680100000F900F900F909E
:100150000F90DF91CF910895CF93DF93CDB7DEB7A6
:100160002E970FB6F894DEBF0FBECDBF0E942D01B3
:100170000E94670080E090E0A8ECB2E489839A8353
:10018000AB83BC8326E636E646E655E469817A8190
:100190008B819C810E941A02DC01CB018D839E839E
:1001A000AF83B88720E030E040E85FE36D817E8177
:1001B0008F8198850E94940188232CF481E090E03F
:1001C0009A8789873FC020E03FEF4FE757E46D8172
:1001D0007E818F8198850E94150218164CF520E0CB
:1001E00030E040E251E469817A818B819C810E94F8
:1001F0001A02DC01CB01BC01CD010E949901DC0196
:10020000CB019A8789870FC080E791E09C878B8715
:100210008B859C850197F1F79C878B8789859A85CB
:1002200001979A87898789859A85892B69F714C0F0
:100230006D817E818F8198850E949901DC01CB01BF
:100240009A87898789859A859E878D878D859E85E2
:100250000197F1F79E878D878BCFCF93DF93CDB733
:10026000DEB781E390E022E0FC0120838AE290E0A7
:1002700028E0FC01208380E490E026E8FC01208354
:1002800089E290E027E0FC01208380E490E0FC011B
:1002900010820000DF91CF910895CF93DF931F92DA
:1002A000CDB7DEB7898300008BE290E0FC0180814E
:1002B000882F90E080729927892BB1F38CE290E02F
:1002C0002981FC01208300000F90DF91CF910895D8
:1002D000CF93DF9300D000D0CDB7DEB79C838B8364
:1002E0001A8219820FC089819A812B813C81820FE9
:1002F000931FFC0180810E944D0189819A810196A2
:100300009A8389838B819C810E94D7029C01898179
:100310009A818217930738F300000F900F900F9087
:100320000F90DF91CF9108950E94C80108F481E0F9
:1003300008950E94F40188F09F5798F0B92F9927EB
:10034000B751B0F0E1F0660F771F881F991F1AF0C0
:10035000BA95C9F714C0B13091F00E940E02B1E015
:1003600008950C940E02672F782F8827B85F39F014
:10037000B93FCCF3869577956795B395D9F73EF459
:1003800090958095709561957F4F8F4F9F4F089501
:10039000990F0008550FAA0BE0E8FEEF1616170696
:1003A000E807F907C0F012161306E407F50798F0FE
:1003B000621B730B840B950B39F40A2661F0232B17
:1003C000242B252B21F408950A2609F4A140A69593
:1003D0008FEF811D811D089557FD9058440F551FC3
:1003E00059F05F3F71F04795880F97FB991F61F0B7
:1003F0009F3F79F087950895121613061406551F2E
:10040000F2CF4695F1DF08C0161617061806991F99
:10041000F1CF86957105610508940895E894BB278E
:1004200066277727CB0197F908950E94C80108F441
:100430008FEF08950E942D020C949E020E9490025C
:1004400038F00E94970220F0952311F00C94870257
:100450000C948D0211240C940F020E94EC0170F395
:10046000959FC1F3950F50E0551F629FF001729F59
:10047000BB27F00DB11D639FAA27F00DB11DAA1F68
:10048000649F6627B00DA11D661F829F2227B00DB5
:10049000A11D621F739FB00DA11D621F839FA00D40
:1004A000611D221F749F3327A00D611D231F849F90
:1004B000600D211D822F762F6A2F11249F575040E7
:1004C0009AF0F1F088234AF0EE0FFF1FBB1F661F62
:1004D000771F881F91505040A9F79E3F510580F02B
:1004E0000C9487020C940F025F3FE4F3983ED4F320
:1004F000869577956795B795F795E7959F5FC1F7CF
:10050000FE2B880F911D9695879597F9089597F979
:100510009F6780E870E060E008959FEF80EC0895A9
:1005200000240A94161617061806090608950024D2
:100530000A9412161306140605060895092E03944C
:10054000000C11F4882352F0BB0F40F4BF2B11F4C0
:1005500060FF04C06F5F7F4F8F4F9F4F089597FBE1
:10056000072E16F4009407D077FD09D00E94C3022D
:1005700007FC05D03EF4909581959F4F08957095A6
:1005800061957F4F0895AA1BBB1B51E107C0AA1FAD
:10059000BB1FA617B70710F0A61BB70B881F991F24
:1005A0005A95A9F780959095BC01CD010895FC015D
:1005B00001900020E9F7809590958E0F9F1F089578
:1005C000AEE0B0E0E6EEF2E00C94A1050D891E89E4
:1005D00086E08C831A8309838FEF9FE79E838D8348
:1005E000AE01475E5F4F6F89788DCE0101960E9404
:1005F0000203EF81F885E00FF11F10822E96E4E0F0
:100600000C94BD05ABE0B0E0E8E0F3E00C9493059A
:100610006C017B018A01FC0117821682838181FFB4
:10062000CCC1CE0101963C01F6019381F70193FD07
:10063000859193FF81917F01882309F4BAC18532A6
:1006400039F493FD859193FF81917F01853229F4DF
:10065000B60190E00E94F904E7CF912C212C312CB7
:10066000FFE1F315D8F08B3279F038F4803279F06D
:100670008332A1F4232D20611DC08D3261F08033BF
:1006800069F4232D216016C0832D8260382EE32D5E
:10069000E4603E2E2AC0F32DF8601DC037FC2DC04B
:1006A00020ED280F2A3040F08E32B9F436FC81C19B
:1006B000232D2064322E19C036FE06C08AE0989E93
:1006C000200D1124922E11C0EAE02E9E200D11243F
:1006D000222EF32DF0623F2E08C08C3621F4832D9C
:1006E0008068382E02C0883641F4F70193FD859169
:1006F00093FF81917F018111B3CF982F9F7D9554F6
:10070000933028F40C5F1F4F9FE399830DC083360D
:1007100031F0833771F0833509F059C021C0F801F9
:10072000808189830E5F1F4F88248394912C53010D
:1007300013C02801F2E04F0E511CF801A080B180D7
:1007400036FE03C0692D70E002C06FEF7FEFC50178
:100750000E94EE044C018201F32DFF773F2E16C05C
:10076000280122E0420E511CF801A080B18036FE23
:1007700003C0692D70E002C06FEF7FEFC5010E94DA
:10078000E3044C01F32DF0683F2E820133FC1BC0C3
:10079000822D90E088169906B0F4B60180E290E0D0
:1007A0000E94F9042A94F4CFF50137FC859137FEB5
:1007B00081915F01B60190E00E94F90421102A9412
:1007C00021E0821A91088114910471F7E8C08436FF
:1007D00011F0893641F5F80137FE07C0608171815B
:1007E000828193810C5F1F4F08C060817181072E49
:1007F000000C880B990B0E5F1F4FF32DFF763F2ED9
:1008000097FF09C090958095709561957F4F8F4FA8
:100810009F4FF0683F2E2AE030E0A3010E9435058B
:10082000882E861845C0853731F4232D2F7EB22EB1
:100830002AE030E025C0932D997FB92E8F36C1F084
:1008400018F4883579F0B5C0803719F0883721F071
:10085000B0C0E92FE061BE2EB4FE0DC0FB2DF460E8
:10086000BF2E09C034FE0AC0292F2660B22E06C052
:1008700028E030E005C020E130E002C020E132E0B5
:10088000F801B7FE07C060817181828193810C5F9E
:100890001F4F06C06081718180E090E00E5F1F4FA6
:1008A000A3010E943505882E8618FB2DFF773F2E69
:1008B00036FE0DC0232D2E7FA22E891458F434FE4F
:1008C0000BC032FC09C0832D8E7EA82E05C0B82C2B
:1008D000A32C03C0B82C01C0B92CA4FE0FC0FE018C
:1008E000E80DF11D8081803321F49A2D997EA92E87
:1008F00009C0A2FE06C0B394B39404C08A2D8678C2
:1009000009F0B394A3FC11C0A0FE06C0B21488F491
:10091000280C922C9B180EC0B21460F4B60180E231
:1009200090E00E94F904B394F7CFB21418F42B1896
:1009300002C0982C212CA4FE10C0B60180E390E0E8
:100940000E94F904A2FE17C0A1FC03C088E790E052
:1009500002C088E590E0B6010CC08A2D867859F077
:10096000A1FE02C08BE201C080E2A7FC8DE2B601CD
:1009700090E00E94F904891438F4B60180E390E015
:100980000E94F9049A94F7CF8A94F301E80DF11DBF
:100990008081B60190E00E94F9048110F5CF2220F9
:1009A00009F442CEB60180E290E00E94F9042A9454
:1009B000F6CFF6018681978102C08FEF9FEF2B96CD
:1009C000E2E10C94AF05FC0105906150704001100C
:1009D000D8F7809590958E0F9F1F0895FC01615068
:1009E000704001900110D8F7809590958E0F9F1F51
:1009F00008950F931F93CF93DF93FB01238121FD74
:100A000003C08FEF9FEF2CC022FF16C04681578195
:100A1000248135814217530744F4A081B1819D019F
:100A20002F5F3F4F318320838C93268137812F5F47
:100A30003F4F3783268314C08B01EC01FB010084F8
:100A4000F185E02D0995892BE1F6D80116968D9157
:100A50009C911797019617969C938E931697CE01AB
:100A6000DF91CF911F910F910895FA01AA272830A5
:100A700051F1203181F1E8946F936E7F6E5F7F4F6B
:100A80008F4F9F4FAF4FB1E03ED0B4E03CD0670FE7
:100A9000781F891F9A1FA11D680F791F8A1F911D3A
:100AA000A11D6A0F711D811D911DA11D20D009F48A
:100AB00068943F912AE0269F11243019305D3193CC
:100AC000DEF6CF010895462F4770405D4193B3E0B5
:100AD0000FD0C9F7F6CF462F4F70405D4A3318F05C
:100AE000495D31FD4052419302D0A9F7EACFB4E00D
:100AF000A6959795879577956795BA95C9F70097C5
:100B00006105710508959B01AC010A2E0694579565
:100B1000479537952795BA95C9F7620F731F841FBC
:100B2000951FA01D08952F923F924F925F926F9252
:100B30007F928F929F92AF92BF92CF92DF92EF926D
:100B4000FF920F931F93CF93DF93CDB7DEB7CA1BEE
:100B5000DB0B0FB6F894DEBF0FBECDBF09942A8819
:100B6000398848885F846E847D848C849B84AA84C1
:100B7000B984C884DF80EE80FD800C811B81AA814E
:100B8000B981CE0FD11D0FB6F894DEBF0FBECDBF19
:080B9000ED010895F894FFCF78
:080B9800553D2025640A000010
:00000001FF
